:200000000C94BC070C94E4070C94E4070C94E4070C94E4070C94E4070C94E4070C94E407B0
:200020000C94E4070C94E4070C94E4070C94E4070C94E4070C94E4070C94E4070C94E40768
:200040000C9495300C94E4070C9405310C94DF300C94E4070C94E4070C94E4070C94E407FF
:200060000C9437310C94E40700000000003E5B4F5B3E3E6B4F6B3E1C3E7C3E1C183C7E3C8D
:20008000181C577D571C1C5E7F5E1C00183C1800FFE7C3E7FF0018241800FFE7DBE7FF304C
:2000A000483A060E2629792926407F050507407F05253F5A3CE73C5A7F3E1C1C08081C1C4B
:2000C0003E7F14227F22145F5F005F5F06097F017F006689956A606060606094A2FFA294B5
:2000E00008047E040810207E201008082A1C08081C2A08081E101010100C1E0C1E0C3038AA
:200100003E3830060E3E0E06000000000000005F00000007000700147F147F14242A7F2A35
:2001200012231308646236495620500008070300001C2241000041221C002A1C7F1C2A0841
:20014000083E080800807030000808080808000060600020100804023E5149453E00427FE7
:20016000400072494949462141494D331814127F1027454545393C4A4949314121110907B9
:200180003649494936464949291E000014000000403400000008142241141414141400414D
:2001A00022140802015909063E415D594E7C1211127C7F494949363E414141227F414141F1
:2001C0003E7F494949417F090909013E414151737F0808087F00417F41002040413F017FB0
:2001E000081422417F404040407F021C027F7F0408107F3E4141413E7F090909063E41511A
:20020000215E7F09192946264949493203017F01033F4040403F1F2040201F3F4038403F63
:20022000631408146303047804036159494D43007F4141410204081020004141417F0402E7
:200240000102044040404040000307080020545478407F284444383844444428384444284A
:200260007F385454541800087E090218A4A49C787F0804047800447D40002040403D007F4A
:200280001028440000417F40007C047804787C080404783844444438FC182424181824245A
:2002A00018FC7C08040408485454542404043F44243C4040207C1C2040201C3C4030403C47
:2002C00044281028444C9090907C4464544C440008364100000077000000413608000201BA
:2002E0000204023C2623263C1EA1A161123A4040207A385454555921555579412254547893
:2003000042215554784020545579400C1E52721239555555593954545459395554545800EA
:2003200000457C410002457D420001457C407D1211127DF0282528F07C54554500205454FD
:200340007C547C0A097F4932494949323A4444443A324A4848303A4141217A3A4240207810
:20036000009DA0A07D3D4242423D3D4040403D3C24FF2424487E4943662B2FFC2F2BFF0992
:2003800029F620C0887E090320545479410000447D413048484A32384040227A007A0A0AAA
:2003A000727D0D19317D2629292F28262929292630484D4020380808080808080808382FE0
:2003C00010C8ACBA2F102834FA00007B000008142A142222142A14085500550055AA55AA2F
:2003E00055AAFF55FF55FF000000FF00101010FF00141414FF001010FF00FF1010F010F0C0
:20040000141414FC001414F700FF0000FF00FF1414F404FC141417101F10101F101F141468
:20042000141F00101010F0000000001F101010101F10101010F010000000FF10101010105C
:2004400010101010FF10000000FF140000FF00FF00001F10170000FC04F414141710171488
:2004600014F404F40000FF00F714141414141414F700F7141414171410101F101F141414FB
:20048000F4141010F010F000001F101F0000001F14000000FC140000F010F01010FF10FF95
:2004A000141414FF141010101F00000000F010FFFFFFFFFFF0F0F0F0F0FFFFFF00000000F6
:2004C00000FFFF0F0F0F0F0F3844443844FC4A4A4A347E02020606027E027E0263554941B7
:2004E000633844443C04407E201E2006027E020299A5E7A5991C2A492A1C4C7201724C300E
:200500004A4D4D303048784830BC625A463D3E494949007E0101017E2A2A2A2A2A44445F93
:20052000444440514A444040444A51400000FF0103E080FF000008086B6B0836123624364D
:20054000060F090F06000018180000001010003040FF0101001F01011E00191D1712003CCD
:200560003C3C3C000000000053442043415244204E4F5420464F554E44202D2043484543C9
:200580004B2043415244004841564520412050524F44554354495645204441592C20534946
:2005A000522E004841564520412050524F44554354495645204441592C205349522E004863
:2005C000454144204F4620414456414E43454420574541504F4E532052264400484541441B
:2005E000204F4620414456414E43454420574541504F4E53205226440045584543555449C0
:20060000564520434C454152414E4345204752414E54454400455845435554495645204367
:200620004C454152414E4345204752414E5445440057454C434F4D452C2050455445520082
:2006400057454C434F4D452C20504554455200202E004C4F4144494E472045584543555488
:200660004956452050524F46494C45005354414E44425900524144494F2052454345495603
:2006800045522E2E2E2E2E2E2E20004C4556454C204F4D45474100534543555249545920C8
:2006A000434C454152414E43452E2E2E20004F4E4C494E450042494F4D455452494320533C
:2006C00043414E4E45522E2E2E2E200043414C494252415445440047454947455220434F5B
:2006E000554E5445522E2E2E2E2E2E2E20004F4B00444953504C4159203438307833323091
:200700002E2E2E2E2E2E20004D4F554E5445440053442053544F524147452E2E2E2E2E2EA9
:200720002E2E2E2E2E200032303438204259544553204F4B004D454D4F5259204348454378
:200740004B2E2E2E2E2E2E2E2E2E20005049502D424F592033303030204D4B205620202F10
:200760002F20204649524D5741524520352E302E31005641554C542D5445432050455253AC
:200780004F4E414C20494E464F2050524F434553534F520000000000240027002A0000008E
:2007A00000080002010000030407000000000000000011007F96290001007F9628003A0158
:2007C00055C0021010C10141C50400228040360168B00100B102B011B40102B60302023BC1
:2007E000B701C63A0155F704A9512C82B701C6E808408A00002919A533C0020D0DC1024314
:2008000000C20100C50400480048B40100B60302023BE00F0F211C0B0E084998380911037D
:20082000141000E10F0F2F2B0C0E06477637071104231E00B00100B30402000000B40100AB
:20084000D003074218D103000710D2020102D3020102D4020102C005123B000211C10310F8
:200860001088C50103C60102C80C003236450616377577540C00CC0100F603010100CF0394
:20088000008130ED0464031281E803851078CB05392C003402F70120EA020000B00100B1F3
:2008A00002001BB40100C00121C10111C5023F3CC701B5360148F20100260101E00F0F2634
:2008C000240B0E0954A8460C17090F0700E10F00191B0410072A473903060630380F3601A8
:2008E00000B80101C0010EB00100C10410100202C006003500000102C50104D2020104CA6A
:200900000100EA0180B903FF83577F967F96B60125C0065050013C1E08B4070240002A2AB6
:200920000D787F01F20B1616030808080810041616FD03110235B2050C0C003333B70135BC
:20094000BB012BC00104C20201FFC30111C40120C6010FD002A4A1E00ED000050E150D3756
:2009600043470915121619E10ED000050D0C062D44400E1C1816193A01557F0A0600070063
:20098000B1020012B40102B60400202700CA0101CB0103C001137F14C501CCC60100C701B7
:2009A00004C80103CC0106CD011CF9021515F3030A020AF603011000FA00FB00E2031E0275
:2009C00054E001017F0AE001037F0A01007F64E60303FFFFB0072400031F01DF00B4080381
:2009E000A0002E30000F00B607020D0010100008BA010FB8020701F001007F0128001100C0
:200A00007F642900BE0606F001F00000D0010DB00103E2013FC00122E20100B00100C00133
:200A20000AB0010000000000000000000000000000000000FFFF0F00000400620800080870
:200A40000003000C01030B5A02030609030317100403002305030017060309630703090C00
:200A600008030C100903322210001600110001011200000013000100000130030101370221
:200A80000301000D800200610201B0C1FFFF3200010000010200000103003010090001006C
:200AA0000C000000900000800F000000100200001102EF001202000013028F010005000039
:200AC0000105000002055F000104010004040000FFFF320007000001FFFF32000002000032
:200AE0000102000000000000000000000000000000000100A4000100FFFF0A0060000027BE
:200B0000080008083000140231001537320004063300160E340011223500001536000785F4
:200B2000370007143800031439002000900015001000100411003702290046002A004600C9
:200B4000070000001200890113000011FFFF96001200B90101000001020000020300301025
:200B6000090001000A0000000D0000000E003000610001006A000000800000008100000049
:200B800082005F009200000193000107FFFF500007000001E500F07801000001020000029D
:200BA00003003010040000000500000008000702090000000A0000000C0000000D000000AC
:200BC0000F0000001000000011000700120000001300000007000100FFFFC8001000901635
:200BE00011002702FFFF320012000D00FFFF32001300001229000A002B000D00FFFF32007C
:200C000020000000210000003000000031000404320003003500050436000808370007042F
:200C200038000303390007073C0004053D00080860000027610001006A00000080000000CA
:200C4000810000008200000083000000840000008500000090001000920000000700330198
:200C6000E500008000000100010000010200000703003010040000000800020209000000A7
:200C80000A0000000C0000000D0000000F00000010000000110007001200000013000000D5
:200CA000FFFF32001000B01711000700FFFF0A0012003A01FFFF0A001300001A29000C0056
:200CC000FFFF0A003000000031000505320004003500060036000707370005013800020075
:200CE000390007073C0004073D000708600000A7610001006A000000210000002000000006
:200D0000800000008100000082000000830000008400000085000000900010009200000092
:200D20009300030095001001970000009800000007007301FFFF3200010000010200000792
:200D40000300301008000203090000000A00080010000000110005001200000013000000DD
:200D6000FFFF64001000B012FFFF320011000700FFFF320012008C001300001729002000B6
:200D8000FFFF32003000000031000601320001013500060136000302370000003800070793
:200DA000390004023C0006013D000301600000A7610001009000300007003301FFFF3200DC
:200DC000150030009A00100011002000100028341200020013003810FFFF280012001200CE
:200DE000FFFF28001000203413004530FFFF460030000000310002043200070333000403C0
:200E0000340004003500010436000707370005033800100639001006010000010200000339
:200E200003003010080008080A000800600000276100010090003E01920000019300000166
:200E4000A0000030A3001000070001000700210007002300070033000700330111001A0015
:200E60001200213113006C001400494210000008FFFF0A0011001A01FFFF0A0011001A036E
:200E8000FFFF0A0011001A07FFFF0A0011001A0FFFFF0A0011003A0FFFFF1E00010028012E
:200EA000020000010300301007001210080003030B0000110C0000000F0001181500200030
:200EC00050000101510003065200080453000000540005065500060456000303570003033E
:200EE000580010005900001007001200FFFF2800070013000700170026003B006B00670077
:200F0000DC003A00300138007A01460028003E0082003C00E600260036012B0086012D004B
:200F2000280049008B004900ED0037003D013200860130007C3C3E5E2B3D3F2F5B5D3B2CD8
:200F40002A225C00010204081020408001020408102001020408102000000000250028001F
:200F60002B000404040404040404020202020202030303030303523211241FBECFEFD8E0FC
:200F8000DEBFCDBF11E0A0E0B1E0E6E9F8E702C005900D92AA3AB107D9F725E0AAEAB1E0EC
:200FA00001C01D92A137B207E1F717E0CCEBD7E004C02197FE010E94CF3ACB3BD107C9F72F
:200FC0000E942C330C94493C0C94000090E0FC01E256F84F2491FC01EC5BF04F3491FC0165
:200FE000EE59F04FE491EE23C9F0222339F0233001F1A8F4213019F1223029F1F0E0EE0F49
:20100000FF1FE85AF04FA591B4918FB7F894EC91611126C030953E233C938FBF08952730D8
:20102000A9F02830C9F0243049F7809180008F7D03C0809180008F7780938000DFCF84B501
:201040008F7784BDDBCF84B58F7DFBCF8091B0008F778093B000D2CF8091B0008F7DF9CFD0
:201060003E2BDACFCF93DF9390E0FC01EC5BF04F24918E59904FFC0184918823D1F090E02E
:20108000880F991FFC01EC56F84FA591B491FC01E85AF04FC591D49161110EC09FB7F894A5
:2010A0008C91E22FE0958E238C932881E223E8839FBFDF91CF9108958FB7F894EC91E22B7D
:2010C000EC938FBFF6CF8E3008F08E508770806480937C0080917A00806480937A00809173
:2010E0007A0086FDFCCF809178009091790008953FB7F89480912C0290912D02A0912E02F6
:20110000B0912F0226B5A89B05C02F3F19F00196A11DB11D3FBFBA2FA92F982F8827BC01EE
:20112000CD01620F711D811D911D42E0660F771F881F991F4A95D1F708958F929F92AF9233
:20114000BF92CF92DF92EF92FF926B017C010E9478084B015C01C114D104E104F104B9F079
:201160000E947808681979098A099B09683E73408105910580F321E0C21AD108E108F10893
:2011800088EE880E83E0981EA11CB11CE4CFFF90EF90DF90CF90BF90AF909F908F90089598
:2011A0002FB7F894609128027091290280912A0290912B022FBF0895AF92BF92CF92DF92FC
:2011C000EF92FF920F931F93CF93DF936C017B018B01040F151FEB015E01AE18BF08C0176A
:2011E000D10759F06991D601ED91FC910190F081E02DC6010995892B79F7C501DF91CF91C4
:201200001F910F91FF90EF90DF90CF90BF90AF900895FC01538D448D252F30E0842F90E042
:20122000821B930B541710F0CF96089501970895FC01918D828D981761F0A28DAE0FBF2FCD
:20124000B11D5D968C91928D9F5F9F73928F90E008958FEF9FEF0895FC01918D828D9817D1
:2012600031F0828DE80FF11D858D90E008958FEF9FEF0895FC01918D228D892F90E0805CA3
:201280009F4F821B91098F73992708958CE394E00E943A0921E0892B09F420E0822F089502
:2012A00080E090E0892B29F00E94460981110C9400000895FC01A48DA80FB92FB11DA35A39
:2012C000BF4F2C91848D90E001968F739927848FA689B7892C93A089B1898C9183708064D1
:2012E0008C93938D848D981306C00288F389E02D80818F7D80830895EF92FF920F931F9307
:20130000CF93DF93EC0181E0888F9B8D8C8D98131AC0E889F989808185FF15C09FB7F8949F
:20132000EE89FF896083E889F98980818370806480839FBF81E090E0DF91CF911F910F91AE
:20134000FF90EF900895F62E0B8D10E00F5F1F4F0F731127E02E8C8D8E110CC00FB607FC46
:20136000FACFE889F989808185FFF5CFCE010E945A09F1CFEB8DEC0FFD2FF11DE35AFF4F9C
:20138000F0829FB7F8940B8FEA89FB8980818062CFCFCF93DF93EC01888D8823B9F0AA898A
:2013A000BB89E889F9898C9185FD03C0808186FD0DC00FB607FCF7CF8C9185FFF2CF808152
:2013C00085FFEDCFCE010E945A09E9CFDF91CF910895FC01DB0112968D919C911397938348
:2013E000828383E591E09183808314968C911497848315968C911597858316964D915D918B
:201400006D917C91199746835783608771871A964D915D916D917C911D97428753876487C6
:2014200075871E964D915D916D917C91519746875787608B718B52968C915297828B5396C7
:201440004D915D916D917C915697438B548B658B768B57964D915D916D917C915A97478BA3
:20146000508F618F728F5B968D919C91948F838F0895DC015996ED91FC913097B9F083893B
:201480009489A589B6894285538564857585841B950BA60BB70B811520E89207A105B105FB
:2014A00038F08FEF9FE7A0E0B0E0089590E080E00895DC0159968D919C91009739F0DC0132
:2014C000ED91FC910480F581E02D099490E080E00895CF93DF931F92CDB7DEB76983DC0189
:2014E000ED91FC910280F381E02D41E050E0BE016F5F7F4F09950F90DF91CF9108950F93E6
:201500001F93CF93DF93EC018B01FE0194913196649122969F3799F470E090E080E00E940F
:201520009D0860E0E62FF0E032960E1B1F0B101611065CF3DF91CF911F910F9108954398A2
:20154000429885B18C7F292F2370822B85B98BB183709C7F892B8BB94198419A30E020E094
:201560002617A8F4FE01E20FF31FE491429A85B18C7F9E2F9370892B85B98BB18370EC7FA2
:20158000E82BEBB94198419A2F5F3F4FE9CFC60FD11D439AC7CF4398429825B12C7F392F38
:2015A0003370232B25B92BB123709C7F922B9BB94198419A95B19C7F282F2370922B95B9B7
:2015C0009BB193708C7F892B8BB94198419A429AFA01615078F0219195B19C7F822F83705E
:2015E000982B95B98BB183702C7F822B8BB94198419AEFCF439A08954398429825B12C7FED
:20160000392F3370232B25B92BB123709C7F922B9BB94198419A95B19C7F282F2370922B3C
:2016200095B99BB193708C7F892B8BB94198419A429A85B18C7F972F9370892B85B98BB142
:2016400083707C7F782B7BB94198419A85B18C7F962F9370892B85B98BB183706C7F682B69
:201660006BB94198419A439A089581E08093340284B1836084B98AB18C6F8AB9389A399AFB
:201680003A9A3B9A3C9A439A409A419A449A62E370E080E090E00E949D08449864E670E039
:2016A00080E090E00E949D08449A64E670E080E090E00E949D0870E060E080EB90E00C9479
:2016C000FC0A1F93CF93DF93C82F162F80913402811102C00E94350B4398429885B18C7FCF
:2016E00085B98BB183708BB94198419A95B19C7F8C2F8370982B95B98BB18370CC7F8C2B34
:201700008BB94198419A429A84B18C7F84B98AB183708AB961E070E080E090E00E949D085F
:2017200061E070E080E090E00E949D08409A409840984098C3B1D9B1409A61E070E080E0D6
:2017400090E00E949D08409A40984098409883B199B1409A115020F7409A439A24B1236091
:2017600024B92AB12C6F2AB9C370DC7FCD2B83709C7F892B9C2FDF91CF911F9108950F9361
:201780001F93CF93DF938C0160E00E94610BEC0161E0C8010E94610B8C01BE0190E080E0C7
:2017A000CB017727662730E020E0602B712B822B932BDF91CF911F910F910895FF920F93A0
:2017C0001F93CF93DF938C0160E00E94610BEC0161E0C8010E94610BF82E62E0C8010E94D0
:2017E000610BAE0170E060E0742F66275527442700E030E020E0402B5F29622B732B292FC1
:2018000030E0C901B0E0A0E08A019B01082B192B2A2B3B2BC901B801DF91CF911F910F91E2
:20182000FF9008950F931F93CF93DF93EC018B01FE0185919491FE01329624966591749125
:201840008F3F980771F490E080E00E949D08045011091016110664F3DF91CF911F910F917D
:2018600008950E94FC0AF3CFFC01262F358D868D82958170982F9627692F70E072A361A3AD
:2018800030FF0CC0821307C080E290E050E040E060E00C94CB0A81E290E0F8CF878D90A13B
:2018A000833927E7920741F058F4843521E0920791F080329445C1F4626081E094E012C0CB
:2018C000863223E99207C1F3893025EB9207A1F38532924949F4660F771F660F771F636158
:2018E00087E090E00C94FC0A81E690E0FBCF8F929F92AF92BF92CF92DF92EF92FF920F9360
:201900001F93CF93DF9300D000D0CDB7DEB77C014B015A016901FC01878D90A1863295412A
:2019200051F4F701868980FF06C0C801841B950B81F50F5F1F4FF701858D80FF31C085A518
:2019400099828A82DB82CC82AE014F5F5F4F64E090E00E94CB0AF70181A9B982AA821B8358
:201960000C83AE014F5F5F4F64E090E00E94CB0A0F900F900F900F90DF91CF911F910F9106
:20198000FF90EF90DF90CF90BF90AF909F908F9008952617370779F6C80ED91E8A01CBCF16
:2019A000B40187A190A50E94FC0AB501F70181A592A50E94FC0AC814D90419F40A151B05B5
:2019C000B9F2F701858D85FF08C0868980FF1EC0102F0027A02AB12A8501B401F70185A532
:2019E00096A50E94FC0AB501F70181A992A90E94FC0AB601F70187A590A90E94FC0AB801D4
:201A0000F70183A994A90E94FC0AB2CFDC2CCC248C289D286401E1CFAF92BF92CF92DF9252
:201A2000EF92FF920F931F93CF93DF93EC0180913202882349F0C701880F991F8E7399277E
:201A4000E1ECEE22E82AF92A37FF05C0620F731F319521953109260F371F77FF02C070E0AD
:201A600060E088859985281739070CF4C9016C01C61AD70A17FF05C0400F511F11950195AE
:201A80001109040F151F57FF02C050E040E02A853B85021713070CF498015901A41AB50A6B
:201AA0008901015011099C0121503109CE010E94770C439842983BA58CA525B12C7F982FE7
:201AC0009370292B25B99BB193708C7F982B9BB94198419A95B19C7F832F8370982B95B995
:201AE0008BB183703C7F832B8BB94198419A429ACA14DB042CF09A2D8B2D5601C92ED82ECE
:201B00008F2DA70193E0569547959A95E1F74C7F5E2D550F550F550F6F2D63707F2D7C7F88
:201B2000EE2DE3702E2D2C7FE22E887F1C141D040CF03FC0909133029501992311F195B1DE
:201B40009C7F95B99BB19370982B9BB94198419A95B19C7F95B99BB19370942B9BB9419818
:201B6000419A95B19C7F95B99BB19370952B9BB94198419A2150310911F791E0C91AD108E4
:201B8000D5CF95B19C7F962B95B99BB19370972B9BB94198419A95B19C7F9E2B95B99BB154
:201BA00093709E299BB94198419A2150310949F7E4CF439A8D8D80FF08C08F8D98A186326A
:201BC000954191F48E8980FF0FC00A851B8501501109288539852150310950E040E070E0F5
:201BE00060E0CE010E94770CDF91CF911F910F91FF90EF90DF90CF90BF90AF9008956F9289
:201C00007F928F929F92AF92BF92CF92DF92EF92FF920F931F93CF93DF93EC016B015A010F
:201C2000490193E0692E712C8FEEE82E87E0F82E84019501A601BE0184E295E00E940C0D7C
:201C40006CE271E080E090E00E949D08F12CE12C9501A601BE0184E295E00E940C0D6CE2C4
:201C600071E080E090E00E949D0881E0681A7108D9F6DF91CF911F910F91FF90EF90DF9034
:201C8000CF90BF90AF909F908F907F906F900895EF92FF920F931F93CF93DF937C01E901BD
:201CA00077FD6DC057FD6BC0FC0180859185681779070CF064C082859385481759070CF0F3
:201CC0005EC080913202882341F0C901880F991F8E739927C17CC82BD92B8A019B01C701C8
:201CE0000E94770C80913302882309F44FC043984298F70133A584A525B12C7F982F9370C9
:201D0000292B25B99BB193708C7F982B9BB94198419A95B19C7F832F8370982B95B98BB119
:201D200083703C7F832B8BB94198419A429A85B18C7F85B99BB18D2F887F9370892B8BB9EA
:201D40004198419A85B18C7F85B92BB1CE0133E0969587953A95E1F78C7F2370822B8BB915
:201D60004198419A85B18C7F85B98BB1CC0FCC0FCC0F8370C82BCBB94198419A439ADF91F8
:201D8000CF911F910F91FF90EF900895BE01F70183A594A5DF91CF911F910F91FF90EF90A2
:201DA0000C94FC0AEF92FF920F931F93CF93DF93CDB7DEB72A970FB6F894DEBF0FBECDBF22
:201DC0007C01862F8370F701868B962F917060FFE3C026813781F70131872087992309F49E
:201DE000DEC024813581F70133872287823009F4DBC0833009F4DAC0813009F4D3C088E44E
:201E00008A87F701858D968D90FF03C02A8520582A8791FF04C02A8530E423272A8793FFB6
:201E200004C02A8538E023272A87F701278D30A180FF00C12431F8E63F0709F0B9C09A8555
:201E4000892F88728A871F82892F85958074282F2260892F90E09595879580729927822BB2
:201E600088878BE38987AE01495F5F4F63E086EB90E00E94CB0A2AE230E0F70130A727A380
:201E80008BE290E092A781A74CE250E054A743A736A725A730AB27A792AB81AB94AB83AB99
:201EA000AE01465F5F4F61E086E390E00E94CB0A8A8590E0F70194A383A3F701868980FF35
:201EC0001CC0858D968D92FD18C087A190A521A532A530A727A392A781A785A596A521A95F
:201EE00032A936A725A792AB81AB87A590A923A934A930AB27A794AB83ABF70102851385BA
:201F000001501109208531852150310950E040E070E060E0C7010E94770CF70166817781AC
:201F2000878D90A120E08732F3E99F0709F420E2F701358D30FF39C119821A827B836C831B
:201F40001D822E83AE014F5F5F4F66E083E390E00E94CB0A19821A82AE014F5F5F4F62E00F
:201F600087E390E00E94CB0AF701858D80FF07C050E040E060E083E190E00E94CB0A2A9625
:201F80000FB6F894DEBF0FBECDBFDF91CF911F910F91FF90EF900895248135811CCF268142
:201FA000378121CF88E22CCF88E92ACF88EF28CF273243E9340789F41F8281E388878A85DC
:201FC000859585958595859588708987AE01495F5F4F63E080EC90E04CCF233689E1380750
:201FE00049F02138E4E93E0729F02131F5E13F0709F041CF8A8587FF02C081608A878A8555
:2020000086FF02C082608A878A858F73233649E1340731F0213884E9380721F48A858F726C
:202020008A8729CF2131354109F025CF8A858F7E806CF6CF6A85862F062E000C990B233931
:20204000F7E73F0751F0A8F52435E1E03E0709F45CC02032F4E53F07A1F540E052E0F701B5
:2020600050A747A341E052E052A741A742E052E054A743A740E152E056A745A741E152E082
:2020800050AB47A742E152E052AB41AB43E152E054AB43AB882790782632F3E93F0721F094
:2020A0002032344509F071C067FD846060E071E36EC0263243E9340781F22930E5EB3E0781
:2020C00061F220E230E0F70130A727A321E230E032A721A722E230E034A723A720E530E080
:2020E00036A725A721E530E030AB27A722E530E032AB21AB23E530E034AB23ABBC016627A9
:202100007078776280E690E046C027E330E0F70136A725A726E330E030AB27A729E330E089
:2021200032AB21AB28E330E034AB23AB20E230E030A727A321E230E032A721A722E230E0B3
:2021400034A723A7F4E06F9FB001112466277170882792708862682B792B81E090E00E945F
:20216000FC0A8A85682F70E075956795759567956870772783FD70616063F70174A363A3B8
:2021800083E090E00E94FC0A98CE60E072E6682B792B80E094E00E94FC0A6A85F4E06F9F42
:2021A000B001112466277170D8CF8339F7E79F07D9F1F0F4803244E59407B1F18338E7E795
:2021C0009E0731F184359140F1F46150710981E390E00E94FC0A70E060E082E390E00E941B
:2021E000FC0A70E060E083E390E00E94FC0AC7CE863223E99207C1F0893045EB9407A1F013
:202200008532924911F3F70161A172A1626003C0F70161A172A181E690E00E94FC0A70E0BA
:2022200060E08AE690E0E1CFF70161A172A1626081E094E00E94FC0A70E060E084E094E01A
:20224000D4CFEF92FF920F931F93CF93DF931F92CDB7DEB78C010E94350B109240051092DF
:202260003F051093440500934305013320E8120709F457C308F0CDC0033550E2150709F4DF
:20228000A6C308F065C0013195E1190709F490C110F50939110509F453C350F480E091E11C
:2022A0000130110579F010922905109228057DC1043541E0140709F46CC10530154199F7D7
:2022C00084E090E1909342058093410568ED70E080E69CE068C1013885E1180709F486C3B2
:2022E000A0F4003225E1120709F4C8C206321541D1F683E194E090934205809341053CE066
:20230000E32EF12C0FE01AE06AC1023056E1150709F451C30336194131F681E08093330282
:2023200083E59AE0909342058093410580EE91E090932B0580932A0580E293E0909329055E
:202340008093280523E5E22EF12C0CEB19E047C1093098E6190709F40BC300F5053345E418
:20236000140709F497C280F40932124309F09BCF83E096E0909342058093410590E4E92E5E
:20238000F12C0CE719E02BC1003193E5190709F48CC20830144509F493CF85CF093847E781
:2023A000140709F4B2C2A0F4043188E6180709F494C20338174709F076CF82E091E190931A
:2023C00042058093410568E870E088E39DE0EBC0033927E7120709F43CC30639174709F035
:2023E00062CF83E094E0909342058093410580EE91E090932B0580932A0580E491E09093A6
:202400002905809328052DE0E22EF12C0CEE17E0E6C0083353E9150709F4E2C208F04EC043
:20242000053293E91907E1F160F5003940E9140709F483C2E0F40735134809F034CF83E019
:2024400094E1909342058093410580EE91E090932B0580932A0580E491E090932905809397
:202460002805A2E0EA2EF12C02E219E0B8C0023093E9190709F4B1C20032134909F420CF6B
:2024800012CF093243E9140709F4ADC260F4073283E9180709F477C20832134909F003CFBE
:2024A00080E091E167C2013323E9120721F00533134909F0F8CE80E090E15CC2093854E9F7
:2024C0001507C8F5073884E9180708F0AAC2013894E9190709F4A2C290F400541349023057
:2024E000110508F0E0CE83E194E0909342058093410555E6E52EF12C09E718E070C00638C4
:20250000144909F0D0CE83E094E0909342058093410580EE91E090932B0580932A0580E455
:2025200091E090932905809328053BE3E32EF12C09EF17E054C0093055EB150709F489C26D
:20254000A0F401319CEA190709F444C20530154B09F0A9CE88E090E190934205809341056B
:2025600060EB70E084EE9AE01EC0053045EC140789F383E19EE00115134E09F094CE909322
:2025800042058093410563E0E62EF12C0EED18E026C082E090E190934205809341056CE963
:2025A00070E08CE59EE00E94120C10E000E017C083E090E0909342058093410580EE91E000
:2025C00090932B0580932A0580E491E0909329058093280553E0E52EF12C01E21AE020910F
:2025E0004205822F82958F7090E08170992790934605809345050115110581F069E070E0AB
:2026000088EB97E00E947F0AB701C8010E947F0A66E070E082EB97E00E947F0A60E084E2AE
:2026200095E00E94D20E60E084E295E00E94340C80914305909144058838944909F016C176
:202640001092320220EE3FEF50E040E070E060E084E295E00E94480EF0904F05E09050051C
:202660008091410580FF03C08EE2F82EE12C80914305909144058230964119F40EE2F02EB7
:20268000E12C10E000E030E020E050E040E070E060E084E295E00E94770C8091410580FD99
:2026A00010C070E060E080914B0590914C050E94FC0A70E060E080914D0590914E050E9436
:2026C000FC0A4398429885B18C7F9E2D9370892B85B99BB193705E2D5C7FE52EE92AEBB8C0
:2026E0004198419A85B18C7F9F2D9370892B85B99BB193708F2D8C7FF82EF92AFBB8419839
:20270000419A429A84B18C7F84B98AB183708AB92091410530914205809143059091440552
:2027200026FD0EC0409A40984098409843B149B1409A20FD05C0893842E1940709F09CC1C7
:202740008131954139F4409A40984098409883B189B1409AB90164707727409A4098409864
:20276000409824FFA6C193B189B193708C7F982B409A409A40984098409843B189B143708B
:202780008C7F482B409A409A40984098409883B1E9B083705E2D5C7F852B409A50E0672B0D
:2027A00009F472C1E82EF12CFE2CEE24EE2488EFF82213E0440F551F1A95E1F7407E577011
:2027C000E42AF52A969596959695E92A80913202882399F0C70135E0969587953A95E1F7F4
:2027E00080729927A701569547954F715527842B952B50ECE522E82AF92A409A439A84B1A9
:20280000836084B98AB18C6F8AB920FD14C000912E0510912F050150110920912C05309187
:202820002D052150310950E040E070E060E084E295E00E94770C8FE1E8168FEFF806B1F44C
:2028400086E08983AE014F5F5F4F61E08AE390E00E94CB0A80914105909142058F7E909377
:2028600042058093410581E0809332020F90DF91CF911F910F91FF90EF90089583E194E0CE
:20288000909342058093410546E0E42EF12C0BE11AE0A5CE80E090E1909342058093410533
:2028A0006CE970E080EC9DE07ECE83E19EE0909342058093410580EE91E090932B05809354
:2028C0002A0580E491E0909329058093280582E0E82EF12C0AE719E082CE83E094E090939A
:2028E00042058093410580EE91E090932B0580932A0580E491E0909329058093280503E07B
:20290000E02EF12C07E719E06ACE83E194E0909342058093410511E4E12EF12C06E319E0CF
:202920005ECE83E194E19093420580934105B2E1EB2EF12C04E219E052CE83E194E181CDE0
:2029400083E194E1909342058093410580EE91E090932B0580932A0580E491E09093290541
:2029600080932805FDE1EF2EF12C05E019E037CE82E091E190934205809341056CEC70E0DD
:2029800084E99BE010CE83E094E0909342058093410580E991E090932B0580932A0580EFF9
:2029A00090E09093290580932805EEE1EE2EF12C07EE18E014CE83E094E0909342058093EB
:2029C000410576E0E72EF12C01EE18E008CE87E194E1D5CD83E194E1D2CD83E094E0CFCD02
:2029E00083E194E0CCCD83E096E1C9CD83E194E0909342058093410580EE91E090932B0529
:202A000080932A0580E491E0909329058093280545E4E42EF12C04E318E0E1CD87E094E04E
:202A2000E7CF83E194E0909342058093410580EE91E090932B0580932A0580E491E09093D9
:202A40002905809328059BE2E92EF12C01EC17E0C6CD80E090E1909342058093410560EC00
:202A600070E084E29AE00E94120C80E991E090932B0580932A0599CD409A4098409840982F
:202A800043B149B1409A5CCEE92EF12CFE2CEE24EE2498EFF922A3E0440F551FAA95E1F7BF
:202AA000407E5770E42AF52A869586958695E82A8DCEE3B099B1409A409A4098409840988D
:202AC00083B149B183704C7F842B409A4E2D4370E42E9C7FE92AFE2CE82E23FF03C0F826D0
:202AE000EF24FE24672B09F471CEC701807E9770A701452F5527469546954695842B952B6E
:202B0000FE2CEE24FF0CFF0CFF0CE82AF92A5ECE2091D101260F3327331F21323105ECF42A
:202B20002091F501FC0190E080E0243069F082E00895A091D1012191AC014F545E4FA40F10
:202B4000B52FB11D2C930196861798F38091D101680F6093D10180E0089581E0089508958E
:202B60008FEF9FEF08958FEF9FEF08958091AA0190E09195819591090895CF93DF93CB01C4
:202B8000EA01642F0E948815CE01DF91CF910895CF93DF931F92CDB7DEB7698361E0CE01A2
:202BA00001960E94881581E090E00F90DF91CF910895089561E0FC0184810E94E6078091E2
:202BC0001B02811110921B0208958EBD00000DB407FEFDCF8EB508958FEF0C94E5150F9373
:202BE0001F93CF93DF93EC010E94D0088B010E94EC158F3F69F00E94D008601B710B6C179E
:202C00007D07A8F380E0DF91CF911F910F91089581E0F9CF8CBD9DBD0895CF93DF93EC014E
:202C200080911B02811109C081E080931B028091D9049091DA040E940A1660E08C81DF910E
:202C4000CF910C94E6078F929F92AF92BF92FF920F931F93CF93DF93EC01F62E49015A0134
:202C60008E81882389F08F8198859C012F5F3F4F38872F838230924018F40E94EC15F3CFD5
:202C8000CE010E94DA151E82CE010E940D168CE291E00E94EF158F2D80640E94E51508E1F6
:202CA00010E0D501C401002E04C0B695A795979587950A94D2F70E94E51508501109083F0C
:202CC0008FEF180771F785E9FF2021F028E087E8F2128FEF0E94E51510E00E94EC158A8718
:202CE00087FF04C01F3F11F01F5FF7CFDF91CF911F910F91FF90BF90AF909F908F900895BF
:202D0000AF92BF92CF92DF92EF92FF920F931F93CF93DF93EC016901C801820F931F813001
:202D2000924050F58E81882379F088819981AA81BB8184179507A607B70731F48F819885DB
:202D4000C816D90608F042C0488359836A837B838B85833039F089E0440F551F661F771FF3
:202D60008A95D1F79A01AB0161E1CE010E942316882389F083E08D83CE010E94DA1580E0E2
:202D8000DF91CF911F910F91FF90EF90DF90CF90BF90AF9008950E94D0085B010E94EC1593
:202DA0008A878F3F69F40E94D0086A197B096D327140A0F38FE08D83CE010E94DA15DCCFE9
:202DC0008E3F89F418861F8281E08E838F8198858C159D0550F40E94EC158F8198850196DD
:202DE00098878F83F3CF8DE0E6CF6701E00EF11E0E94EC15F60181936F01EE15FF05C1F77C
:202E00008F819885080F191F18870F838985882319F001151240A0F08E81882389F08F8108
:202E200098859C012F5F3F4F38872F838230924018F40E94EC15F3CFCE010E94DA151E8256
:202E400081E09ECFCF92DF92EF92FF920F93CF93DF93EC01690182E1411551056105710508
:202E600099F08B85833039F089E0440F551F661F771F8A95D1F79A01AB0168E1CE010E94AA
:202E80002316882319F084E08D832DC08EEF0E94E51576018EEFD81AF70181917F010E94B9
:202EA000E515EC14FD04C1F78FEF0E94E5158FEF0E94E5150E94EC158A878F71853071F45D
:202EC000011116C0CE010E94DA1581E0DF91CF910F91FF90EF90DF90CF90089581E18D83EE
:202EE000CE010E94DA15CE010E94DA1580E0EECF88E592E00E94EF15811102C085E1C4CF23
:202F000020E030E0A9016DE0CE010E942316882311F084E1B9CF0E94EC158111FACFD2CFC8
:202F20000F9340911C0250911D0260911E0270911F02411551056105710599F0082F2CE376
:202F400032E080913002909131020E942217882349F010921C0210921D0210921E02109224
:202F60001F0281E00F9108950F93CF93C82F80913B02811105C0C1E08C2FCF910F910895F9
:202F8000409104015091050160910601709107010C2F2CE332E080913002909131020E94DE
:202FA0002217811102C0C0E0E7CFCC2321F381E00E9490178823B9F310923B02DDCF8F927E
:202FC0009F92AF92BF92EF92FF920F931F93CF934B015C01C42F8091040190910501A0915C
:202FE0000601B091070188159905AA05BB0551F181E00E94B41781110BC080E0CF911F91FA
:203000000F91FF90EF90BF90AF909F908F9008958CE3E82E82E0F82E00E012E030E020E09A
:20302000B501A40180913002909131020E948016882319F38092040190920501A092060137
:20304000B092070140913B024C2B40933B0281E0D5CF8F929F92AF92BF92CF92DF92EF9255
:20306000FF92CF932BED34E03093310220933002882309F46DC040E060E070E0CB010E9463
:20308000DF1781110BC080E0CF91FF90EF90DF90CF90BF90AF909F908F9008958091FA03BA
:2030A0008F7789F78091060490910704A0910804B091090484369105A105B10520F3C090A9
:2030C0000204D0900304E0900404F0900504C114D104E104F104B9F240E0C701B6010E9412
:2030E000DF17882381F280914702909148028115924049F6A0914C02AA2329F260914A02AC
:2031000070914B026115710509F4BDCF20914902222309F4B8CFA093F9042093EB0490E0E5
:2031200080E030E0E1E0F0E0C82FAF01082E02C0440F551F0A94E2F72417350769F041E0C0
:20314000480F01968930910579F74093F4049BCFC12CD12C7601C0CF8093F404209152028D
:203160003091530250E040E02115310541F4209160023091610240916202509163022093E3
:20318000EC043093ED044093EE045093EF0446015701860E971EA11CB11C8092FA0490924C
:2031A000FB04A092FC04B092FD04E0914D02F0914E02F0930005E093FF04B0E00E9467383B
:2031C000DC01CB01880D991DAA1DBB1D8093010590930205A0930305B093040525E0EE0F90
:2031E000FF1F2A95E1F7E150FE4FEF2FFF27E6958E0F9F1FA11DB11D8093F5049093F604CD
:20320000A093F704B093F80480904F0290905002B12CA12C8114910441F480905C029090D7
:203220005D02A0905E02B0905F02C81AD90AEA0AFB0AC80CD91CEA1CFB1C04C0F694E79491
:20324000D794C794CA95D2F7C092F004D092F104E092F204F092F30485EFC8168FE0D80663
:20326000E104F10428F48CE08093FE0481E00CCF80E125EFC2162FEFD206E104F104A0F3EB
:203280008091680290916902A0916A02B0916B028093010590930205A0930305B093040512
:2032A00080E2E2CF4F925F926F927F928F929F92AF92BF92CF92DF92EF92FF920F931F93FB
:2032C000CF93DF93EC01423051056105710590F480E0DF91CF911F910F91FF90EF90DF9008
:2032E000CF90BF90AF909F908F907F906F905F904F90089589859A85AB85BC850196A11D27
:20330000B11D84179507A607B70710F3CB88DC88ED88FE888F89803109F042C0BB27A72F0C
:20332000962F852F480159012A013B01C80ED91EEA1EFB1E8091040190910501A0910601A7
:20334000B0910701C816D906EA06FB0699F58F898031C1F5B301A201552766277727440F18
:20336000551F445C5D4FFA019182808280913B02816080933B028A89823080F08D819E819C
:20338000AF81B8858C0D9D1DAE1DBF1D80931C0290931D02A0931E02B0931F0281E099CFD3
:2033A000DB01CA01E7E0B695A79597958795EA95D1F7B8CF40E0C701B6010E94DF17811139
:2033C000C6CF86CFB301A2014F77552766277727440F551F440F551F445C5D4FFA01808268
:2033E0009182A282B382C2CF8F929F92AF92BF92CF92DF92EF92FF920F931F93CF93DF93E0
:20340000FC0181859285A385B4850196A11DB11D84179507A607B70770F480E0DF91CF91D8
:203420001F910F91FF90EF90DF90CF90BF90AF909F908F90089583889488A588B688878945
:20344000803189F5BB27A72F962F852FE9016A017B018F01BC01CD01680D791D8A1D9B1DB6
:203460008090040190900501A0900601B090070186169706A806B90601F5F801878980313C
:2034800011F5DD24EE24FF24F601EE0FFF1FE45CFD4F80819181B0E0A0E088839983AA83DB
:2034A000BB8381E0BBCFDB01CA01C7E0B695A79597958795CA95D1F7C9CF40E00E94DF174F
:2034C0008111DBCFAACFE894C7F8DD24EE24FF24F601EE0FFF1FEE0FFF1FE45CFD4F80810C
:2034E0009181A281B381BF70D8CF4F925F926F927F92AF92BF92CF92DF92EF92FF920F9391
:203500001F93CF93DF9300D000D0CDB7DEB78C0149835A836B837C835901C12CD12C76018E
:20352000412C82E0582E612C712C49815A816B817C819E012F5F3F4FC8010E94F4198823A0
:2035400039F1F8018585A301920104C0220F331F441F551F8A95D2F7DA01C901C80ED91E8F
:20356000EA1EFB1E49815A816B817C818789803111F188EF9FEFAFEFBFE0481759076A0767
:203580007B0798F2F501C082D182E282F38281E00F900F900F900F90DF91CF911F910F91BE
:2035A000FF90EF90DF90CF90BF90AF907F906F905F904F90089588EF9FEFA0E0B0E0DDCF67
:2035C000CF93DF93FC012581222321F080E0DF91CF910895EC018091FE04803159F582E0F0
:2035E0008583178A108E118E128E8091FF0490910005B0E0A0E025E0880F991FAA1FBB1F04
:203600002A95D1F7838B948BA58BB68B87EE94E09C8F8B8F81E08C831E821F821886198669
:203620001A861B861C861D861E861F86188A198A1A8ACDCF803251F683E0858340910105FB
:20364000509102056091030570910405478B508F618F728F9F012D5E3F4F87EE94E00E9499
:20366000751A8111D3CFB2CF8F929F92AF92BF92CF92DF92EF92FF920F931F93CF93DF9316
:20368000EC018D8181110EC080E0DF91CF911F910F91FF90EF90DF90CF90BF90AF909F90B6
:2036A0008F9008950B891C892D893E89041715072607370748F34A015B01823031F48A862D
:2036C0009B86AC86BD8681E0E0CF81149104A104B10449F41E821F82188619861A861B86C4
:2036E0001C861D86F0CF0A851B852C853D85EB8DFC8D858590E00996B901A80141505109BC
:2037000061097109082E04C076956795579547950A94D2F775016401E1E0CE1AD108E1084F
:20372000F10804C0F694E794D794C7948A95D2F7C416D506E606F70620F0012B022B032BE4
:2037400011F58F89988DA98DBA8D8E839F83A887B9878E010A5F1F4FC114D104E104F1041D
:2037600009F4ADCF4E815F816885798598018B8D9C8D0E94F41991E0C91AD108E108F1089E
:203780008111EACF81CFC41AD50AE60AF70AE1CF3F924F925F926F927F928F929F92AF92E8
:2037A000BF92CF92DF92EF92FF920F931F93CF93DF93CDB7DEB72C970FB6F894DEBF0FBE15
:2037C000CDBF5C01DC015B968D909C905C9716964D905D906D907C901997411451046104B8
:2037E000710409F468C0BFEF4B1A5B0A6B0A7B0A312CF40181859285A385B4859C01AD01A2
:203800002F5F3F4F4F4F5F4F29873A874B875C87730162011D821E821F821886F4018185CA
:203820009285A385B4852D813E814F815885281739074A075B0708F056C089859A85AB8559
:20384000BC858C159D05AE05BF0550F482E0C82ED12CE12CF12C92E0492E512C612C712C1A
:203860009E012F5F3F4FB701A601C4010E94F4198823C9F189819A81AB81BC81892B8A2B5E
:203880008B2B09F1260137019FEF491A590A690A790A2D813E814F8158852F5F3F4F4F4FFB
:2038A0005F4F2D833E834F8358873FEFC31AD30AE30AF30AB3CFF401408051806280738089
:2038C0003324339496CFC414D504E604F70409F70FEF1FEF2FEF3FE0B701A601C4010E94C0
:2038E0005219811119C080E02C960FB6F894DEBF0FBECDBFDF91CF911F910F91FF90EF905B
:20390000DF90CF90BF90AF909F908F907F906F905F904F903F900895D50116964D915D9167
:203920006D917C911997411551056105710539F097018601C4010E9452198823A1F2D50116
:203940001696CD92DD92ED92FC921997332051F0D701C6010196A11DB11DF40180839183CE
:20396000A283B383F5018789908DA18DB28D892B8A2B8B2B39F48481C78AD08EE18EF28E6D
:2039800080688483F50184818062848381E0ACCF2F923F924F925F926F927F928F929F92B0
:2039A000AF92BF92CF92DF92EF92FF920F931F93CF93DF9300D01F92CDB7DEB7FC018581CC
:2039C000811118C08FEF9FEF0F900F900F90DF91CF911F910F91FF90EF90DF90CF90BF9049
:2039E000AF909F908F907F906F905F904F903F902F900895848180FFE5CF43895489658964
:203A0000768982859385A485B585312C212C481759076A077B0719F022242394312C6F01F6
:203A20002101CE0101963C01DF011696BB83AA834114510409F4C5C0F6014285538564851F
:203A400075854A01F1E09F22D6015B968D919C915C978A019B01E9E03695279517950795CA
:203A6000EA95D1F71596EC91E230E9F5FC01628D738D848D958D600F711F821F931FA12CA9
:203A800022E0B22EA818B9084A145B0408F45201F601248126FD04C0A114F2E0BF0671F483
:203AA00000910401109105012091060130910701061717072807390709F05EC040E00E94C5
:203AC000DF17882309F47ECFC401845C9D4FD3019C012A0D3B1DFC012E173F0709F46CC0B9
:203AE00041914D93F9CFDC011496BC90BA94B0228114910479F4B1100DC0452B462B472BE1
:203B000069F5F6018789908DA18DB28D86839783A087B187D6015B96ED91FC915C971696C2
:203B20006D917D918D919C9119976250710981099109258504C0660F771F881F991F2A9597
:203B4000D2F70685178520893189600F711F821F931F6B0D711D811D911D91CFD60116968B
:203B60004D915D916D917C9119972A813B810E94F4198111CFCF26CF730185019401AB0148
:203B8000BC0180913002909131020E948016882309F418CF6A0C7B1CF60182859385A485BE
:203BA000B5858A0D9B1DA11DB11D82879387A487B5874A185B083CCF281B390B620E731E0E
:203BC000EBCF2A94232809F0FDCE898190E0FCCEFC01818D928D009711F00C94C81C8FEF56
:203BE0009FEF08950F931F93CF93DF93EC010E94E81D8C01CE010E94E81D20E0382FC901AA
:203C0000802B912BDF91CF911F910F9108950F931F93CF93DF93EC01898D9A8D10E000E05E
:203C2000009799F00E94C81C8C010F3F100769F0898D9A8DFC014285538564857585415046
:203C40005109610971090E94341BC801DF91CF911F910F9108951F93CF93DF93FC01258186
:203C60002223D1F1162FEC01848187FF2AC0668577858089918941E00E94DF17882361F1D6
:203C8000EA8980E2E89FF0011124E45CFD4F309719F18D81823040F48B899C89AD89BE899B
:203CA000848F958FA68FB78F8F89988D938F828F8F89988DA98DBA8DB58BA48B8C818F77A6
:203CC0008C83111103C08C818F7E8C83812FDF91CF911F910C94B41780E0DF91CF911F914C
:203CE0000895FF920F931F93CF93DF93EC018D81813041F090E080E0DF91CF911F910F91A1
:203D0000FF9008958C8181FFF5CF82FD1BC00091300210913102C8010E940D160E94EC1504
:203D2000F82EC8010E94DA158FEFF812E3CF8C8185FF1BC060E0CE010E942B1E8C818F7D4A
:203D40008C83D8CF4B895C896D897E898A859B85AC85BD8584179507A607B707C1F2CE0131
:203D60000E94341B8111D3CFC5CF40911C0250911D0260911E0270911F02452B462B472B15
:203D800021F080E00E949017B5CF80618C832A853B85317080E092E0821B930BADCFCF93FA
:203DA000DF93EC0161E00E942B1E882311F01D8281E0DF91CF910895FC01818D928D00979E
:203DC00019F061E00C942B1E08952F923F924F925F926F927F928F929F92AF92BF92CF9258
:203DE000DF92EF92FF920F931F93CF93DF9300D000D01F92CDB7DEB77C015B01342E5D8393
:203E0000DC0115968C911597813009F0CEC014962C9021FECAC022FCB4C0C32CDD80229476
:203E20007FE027222094B22DB1702B2ED7011A964D915D916D917C911D97C114D10409F413
:203E400028C15B968D919C915C97FC0174807A948A019B0169E036952795179507956A950D
:203E6000D1F770228A011170711020C001151105E9F416964D915D916D917C9119974115E9
:203E800051056105710509F099C057968D919D910D90BC91A02D0097A105B10509F0B0C052
:203EA000C7010E94C81B882309F47FC080E092E0801B910B46018C159D0508F44C01D7011A
:203EC0005B964D915C915C9716968D919D910D90BC91A02D0297A109B109FA01258504C01E
:203EE000880F991FAA1FBB1F2A95D2F74685578560897189840F951FA61FB71F9C01AD0191
:203F0000270D311D411D511D29013A01811432E0930609F07BC08091040190910501A0910C
:203F20000601B091070184159505A605B70559F48FEF9FEFDC018093040190930501A093ED
:203F40000601B0930701022D9501B301A20180913002909131020E942217882331F19EEF27
:203F6000B91AC818D908F70182859385A485B585880D991DA11DB11D82879387A487B587D2
:203F800055CFF701438954896589768982859385A485B585481759076A077B0709F43DCF32
:203FA000C7010E94341B811138CF81E090E0D70113969C938E93129780E007C09E012F5F10
:203FC0003F4F0E94F419811102C090E079C089819A81AB81BC81F701238D348DF901278906
:203FE00048EF5FEF60E070E0203121F048EF5FEF6FEF7FE084179507A607B70708F050CF4F
:20400000F70186839783A087B18750CF0115110599F5D7011A964D915D916D917C911D973A
:2040200053968D919D910D90BC91A02D481759076A077B0708F181E00E94B417882309F473
:20404000B4CF4092040150920501609206017092070180913B02816080933B02C801845CF3
:204060009D4FD5019C01280D391DFC012E173F0759F04D914193FACF41E0C301B2010E94D0
:20408000DF178111EBCF91CF281B390BA20EB31E68CFF70183899489A589B689841795077A
:2040A000A607B70738F48481438B548B658B768B80688483F701848183FD1AC0832D9D81B2
:2040C0000F900F900F900F900F90DF91CF911F910F91FF90EF90DF90CF90BF90AF909F900C
:2040E0008F907F906F905F904F903F902F90089561E0C7010E942B1E882309F456CFDECF2C
:20410000CF93DF931F92CDB7DEB7698341E050E0BE016F5F7F4F0E94E51E0F90DF91CF9155
:204120000895CF93DF93EC01E98DFA8D309749F481E090E09B838A8390E080E0DF91CF9184
:20414000089513821282898D9A8D0E94E51EE98DFA8D22813381232B59F7F0CF0895FC016C
:204160006370668B8481958126813781613039F0633029F0918780873387228708953187C4
:2041800020879387828708952F923F924F925F926F927F928F929F92AF92BF92CF92DF928C
:2041A000EF92FF920F931F93CF93DF93CDB7DEB76A970FB6F894DEBF0FBECDBF9A8F898F23
:2041C0007A8369834A01D22E18870F833701BC2CDC0159962D913C915A972115310509F0AD
:2041E00015C118968D919C911997681779070CF0D7C11A968D919C91481759070CF0D0C166
:204200004C2C512CB6E0CB9E600D711D11247C876B87161617060CF0C3C1EA2DF0E0FA8754
:20422000E98793E0EE0FFF1F9A95E1F7F88BEF87CF01840F951F181619060CF0B1C1A98D78
:20424000BA8D58968C91811104C0BFEABD1508F4D394A98DBA8DED91FC9111970284F385AA
:20426000E02DCD010995B5E0DB9EC0011124E981FA81FC83EB83312C212C9C0128593F4F99
:20428000388F2F8B4A2D50E05E8B4D8BEF89F88DE20DF31D44919E828D82D12CC12C698161
:2042A0007A81620D731D7A8B698B842F90E09C8B8B8BE98DFA8DA081B18140FF82C0F1E009
:2042C000BF126FC0AF126DC01C96ED91FC912F813885A4014C0D5D1D69897A89898D9A8D1C
:2042E0000995EB89FC89F595E7954E2F5FEFC51AD50A6D817E818D899E89680F791F7E835E
:204300006D8398E0C916D10481F6AFEF2A1A3A0AEB81FC81E40DF51DFC83EB83F5E02F16F1
:20432000310409F0B3CF2F81388526153705B9F0A98DBA8DED91FC91B1E0BB1257C0AB1286
:2043400055C069817A816B5F7F4F0088F189E02D830128E030E0A401898D9A8D0995A98D6A
:20436000BA8DED91FC9111970688F789E02DCD016A960FB6F894DEBF0FBECDBFDF91CF9143
:204380001F910F91FF90EF90DF90CF90BF90AF909F908F907F906F905F904F903F902F90AB
:2043A00009941E96ED91FC91EF80F88409851A8592014D815E816B817C81898D9A8D099585
:2043C00090CF2F8138852615370509F48ACF31E0B31207C0A31205C01C96ED91FC919301DC
:2043E00078CF1E96ED91FC917301E0CF6B857C85641975090684F785E02D73010F851889EC
:204400009201A401898D9A8D0995A9CFF90134969491329745915491D91AB7E0DB9E400D54
:20442000511D1124F901259134913C8B2B8BFA0125903490FA013296749031963491398B5C
:20444000329664903196449041E04C1518F04A1508F07FC0662D062C000C770B7C836B83A5
:20446000842D042C000C990B9E838D83A98DBA8DED91FC9111970284F385E02DCD010995D3
:20448000512CD12CC12CEA2DF0E0FA87E9872B2D30E03C872B87A401440D511D47FC5A956A
:2044A000588F4F8B69817A81660D711D67FC7A957E876D877989C71608F051CF2C2D30E08A
:2044C0004D815E81420F531FA985BA854A9FC0014B9F900D5A9F900D1124FC01E80DF91DFB
:2044E000F88BEF87852D612C4F89588D420F531F5E8B4D8B671408F050C044244394480E2B
:20450000877041F4C1010196EB89FC89E20DF31DD4901C01D7FE19C0A98DBA8DED91FC9167
:20452000662D70E0B1E0BB1219C0AB1217C02D853E85620F731F0484F585E02D2F813885D9
:204540004D895E89898D9A8D0995DD0C6394842DD1CF1E821D821C821B8288CF4B815C8118
:20456000640F751FAB85BC856A9FC0016B9F900D7A9F900D112469817A81680F791F0684E9
:20458000F785E02DEF80F88409851A859D014F855889898D9A8D0995D8CF570CC3948ACF92
:2045A0006A960FB6F894DEBF0FBECDBFDF91CF911F910F91FF90EF90DF90CF90BF90AF902A
:2045C0009F908F907F906F905F904F903F902F9008958F929F92AF92CF92EF92FF920F93DE
:2045E0001F93CF93DF93EC01262F898D9A8D009709F051C06A30D1F41D861C868D8948E033
:20460000849F900111248E859F85820F931F9F878E8781E090E0DF91CF911F910F91FF907C
:20462000EF90CF90AF909F908F9008956D3089F3CC88AD888F898823C1F08C859D8536E013
:20464000C39E800D911D1124488559854817590764F44E855F851D861C8638E0A39EC001B1
:204660001124840F951F9F878E87EA88FB88088919894E855F856C857D85CE010E94C4205C
:204680002C898C859D8546E0249F800D911D11249D878C87BECF6A3069F41D861C86FC01DC
:2046A0003896E4912D898E859F85E29F800D911D1124ADCF6D3009F4ACCFFC0134963491BC
:2046C000631708F4A6CF3296E491E61708F4A1CFFC01329685909490462F431B342F47E0EE
:2046E000349F800C911C1124F401329634913196E4913323A9F1EE2399F1CC88F40135961C
:20470000E491AD884F89442301F10E2E000CFF0BE30FF11DCE9EA001CF9E500D11246C856F
:204720007D85460F571F68857985641775076CF44E855F851D861C86FC013896E491AE9EE2
:20474000400D511D11245F874E87EA88FB88088919894E855F856C857D85CE010E94C42087
:20476000F4013496E4912C898C859D85E29F800D911D11248DCF0F931F93CF93DF938C011B
:20478000D0E0C0E0F801EC0FFD1F6491662341F084E295E00E94E922892B11F02196F2CF55
:2047A000CE01DF91CF911F910F9108956F927F928F929F92AF92BF92CF92DF92EF92FF9293
:2047C0000F931F93CF93DF93EC016B015A0139014801E881F9810284F385E02D0995E88185
:2047E000F9810288F389E02D87019301A501B601CE010995A501480D591D41505109E88181
:20480000F9810288F389E02D9301B601CE010995E881F9810088F189E02D9401A501B6016F
:20482000CE010995C60CD71CB60161507109E881F9810088F189E02D9401A501CE010995CA
:20484000E881F9810688F789E02DCE01DF91CF911F910F91FF90EF90DF90CF90BF90AF9001
:204860009F908F907F906F9009946F927F928F929F92AF92BF92CF92DF92EF92FF920F93C3
:204880001F93CF93DF935C01EB016A01490138018701DC01ED91FC916217730719F5641670
:2048A00075062CF0962D872D3A01C92ED82E9601261937092F5F3F4F048CF58DE02DA301BD
:2048C000BE01C5010995DF91CF911F910F91FF90EF90DF90CF90BF90AF909F908F907F90CE
:2048E0006F9008954615570591F42617370724F0892D4B01C22FD82F9E01281939092F5FA7
:204900003F4F068CF78DE02DA601B401DACF0284F385E02D0995D501ED91FC910488F5894D
:20492000E02D83019401A601BE01C5010995D501ED91FC910688F789E02DC501DF91CF91F5
:204940001F910F91FF90EF90DF90CF90BF90AF909F908F907F906F900994EF92FF920F93F0
:204960001F93DC011A960D911C911B9718962D913C911997ED91FC9100A0F1A1E02D7B014C
:2049800050E040E070E060E009951F910F91FF90EF9008954F925F926F927F928F929F9268
:2049A000AF92BF92CF92DF92EF92FF920F931F93CF93DF936C012B015A0139014801DC0105
:2049C000ED91FC910284F385E02D0995E201640C751CD601ED91FC91C615D7055CF40088CE
:2049E000F189E02D87019401A501BE01C60109952196EFCF0688F789E02DC601DF91CF9122
:204A00001F910F91FF90EF90DF90CF90BF90AF909F908F907F906F905F904F9009948F92F4
:204A20009F92AF92BF92CF92DF92EF92FF920F931F93CF93DF93EC015B014A016901E88140
:204A4000F9810284F385E02D099595012C0D3D1D21503109E881F9810488F589E02D7801EC
:204A60008401A401B501CE010995E881F9810688F789E02DCE01DF91CF911F910F91FF906D
:204A8000EF90DF90CF90BF90AF909F908F9009948F929F92AF92BF92CF92DF92EF92FF9288
:204AA0000F931F93CF93DF93EC015B014A0169017801E881F9810284F385E02D0995C80CF7
:204AC000D91C860101501109E881F9810488F589E02D9501A401B501CE010995E881F981B4
:204AE0000688F789E02DCE01DF91CF911F910F91FF90EF90DF90CF90BF90AF909F908F90F4
:204B00000994EF92FF920F931F93DC01ED91FC9100A0F1A1E02D09951F910F91FF90EF906F
:204B200008950F931F93DC01ED91FC91068CF78DE02D09951F910F9108950F931F93DC01BD
:204B4000ED91FC91048CF58DE02D09951F910F910895DC01ED91FC910084F185E02D099414
:204B60002F923F924F925F926F927F928F929F92AF92BF92CF92DF92EF92FF920F931F93A3
:204B8000CF93DF9300D000D000D0CDB7DEB73C016A013E832D83FC82EB825801A41AB50ADE
:204BA000B7FE03C0B194A194B1088D809E80861A970A97FE03C09194819491088A149B0476
:204BC0005CF0902F812F0D811E819D838E839C2D8D2D6B01692F782F0C151D055CF09D81E1
:204BE0008E817E836D83692F782F902F812F8601C92ED82E1601201A310A2B012D813E815E
:204C0000421A530A57FE03C0519441945108710137FE03C03FEFE31AF30AF594E7948D810C
:204C20009E81861797075CF5A1E0B0E0BA83A983C016D1064CF1D301ED91FC910484F58584
:204C4000E02D2B813C81A8016D817E818A149B041CF04D815E81B801C3010995E418F5083E
:204C6000F7FE0AC02D813E8189819A81280F391F3E832D83E20CF31C0F5F1F4FD9CF2FEF44
:204C80003FEF3A832983D4CF26960FB6F894DEBF0FBECDBFDF91CF911F910F91FF90EF90A9
:204CA000DF90CF90BF90AF909F908F907F906F905F904F903F902F900895089590E080E0D6
:204CC00008953F924F925F926F927F928F929F92AF92BF92CF92DF92EF92FF920F931F9366
:204CE000CF93DF935C016B0160E080915B050E94320860E080915C050E94320861E08091AA
:204D00005E050E94320861E080915D050E94320880916905E0916105F09162059081892BC1
:204D2000808380916A05E0916505F0916605908180958923808380915B050E946308EC01E9
:204D400080915B050E9463089E01281B390B2C5F3F4F312C2930310530F48C0F9D1F959505
:204D60008795332433942FEF33E04901881A990A60E080915E050E94320860E080915D05F6
:204D80000E94320861E080915B050E94320861E080915C050E94320880916C05E0916705BB
:204DA000F0916805908180958923808380916B05E0916305F09164059081892B8083809113
:204DC0005D050E946308EC0180915D050E9463088C01CE01801B910B0496099708F0E5C08D
:204DE0000C0F1D1F1595079561E080915E050E94320860E080915B050E9432088091690579
:204E0000E0916105F0916205908180958923808380916C05E0916705F09168059081892BEC
:204E2000808380915D050E946308EC0180915B050E946308E0905F05F0906005E114F104E1
:204E400009F4B5C0BC01990F880B990B0E94C2392B013C01BE01DD0F880B990B0E94C239BF
:204E60009B01AC01C301B2010E94183920E030E040E85FE30E94AB382B013C01B401092C2D
:204E8000000C880B990B0E94C239A30192010E944E3A2B013C01B70190E080E00E94C03945
:204EA000A30192010E944E3A20E030E040E85AE30E944E3A0E948A39EB01311002C0D0E0EE
:204EC000C0E061E08FE00E94320861E080E10E9432082B97CD3ADB4008F074C02FEF33E0E7
:204EE000201B310B032E000C440B550B2A52324041095109A0912C05B0912D050E9472389C
:204F000025EC3EEF4FEF5FEF0E944838F50131832083A0912E05B0912F059401990C440BF6
:204F2000550B27553140410951090E94723828E930E040E050E00E944838F6013183208353
:204F4000F5018081918197FD37C020912C0530912D058217930714F0C9010197F501918345
:204F60008083F6018081918197FD29C020912E0530912F058217930714F0C9010197F6013E
:204F80009183808381E0DF91CF911F910F91FF90EF90DF90CF90BF90AF909F908F907F90B2
:204FA0006F905F904F903F900895312C1DCFC81BD90BC150DC4F81CF90E080E0CFCF90E03E
:204FC00080E0DDCF80E0DFCFCF92DF92EF92FF92CF93DF93EC016B01770FEE08FF08FE0124
:204FE00064912196662349F084E295E00E94E922C701B6010E949D08F2CFDF91CF91FF90D5
:20500000EF90DF90CF900895CF93DF93EB012091000130910101E4E2F5E04CE050E055879E
:205020004487378726876CE070E00E94E4276EE571E080E090E00E949D0869E170E0CE01CD
:205040000E94E42780910001909101014696909301018093000168E770E080E090E0DF917A
:20506000CF910C949D08EF92FF920F931F93DC011A960D911C911B9718962D913C911997B2
:20508000ED91FC9100A0F1A1E02D7B0150E040E070E060E009951F910F91FF90EF900895D1
:2050A000EF92FF920F931F93DC01ED91FC9100A0F1A1E02D780101E010E009951F910F912B
:2050C000FF90EF900895EF92FF920F931F93DC01ED91FC9100A0F1A1E02D7801890121E094
:2050E00030E009951F910F91FF90EF9008950F931F93CF93DF93EC0180E2689FF001112463
:20510000E45CFD4F6A8B8091040190910501A0910601B09107018E879F87A88BB98B048911
:20512000158930E020E09801112700270F8B188F298F3A8F828D938DB0E0A0E0AC01BD015D
:20514000402B512B622B732B4F8B588F698F7A8F83858871A9F4848D958DA68DB78D8B8B1D
:205160009C8BAD8BBE8B81E08D8381E08C831E821F82188619861A861B861C861D8603C0DF
:20518000803131F080E0DF91CF911F910F9108959E012D5E3F4F8B8D9C8D0E94751A88234B
:2051A00089F384E0E1CFAF92BF92CF92DF92EF92FF920F931F93CF93DF93CDB7DEB72B97E6
:2051C0000FB6F894DEBF0FBECDBF6C01FE013196CE010C967F0120E22193E817F907E1F7D7
:2051E000DA0120E037E09D91B92E9923A9F19E32B9F43A3091F480E02B960FB6F894DEBFD7
:205200000FBECDBFDF91CF911F910F91FF90EF90DF90CF90BF90AF90089528E03AE0E3CF3A
:20522000E4E3FFE08491882321F031969813FACFE2CF321700F38FED890F8E35E0F68FE9AA
:20524000890F8A3118F440EEB42EB90EF701E20FF11DB0822F5FC7CF8981803261F28B0130
:20526000FB01838D948DF601948F838FFB0116821782108611861286138614861586F8011C
:2052800082859385A485B585438954896589768984179507A607B70708F0ADCF25E0B69590
:2052A000A795979587952A95D1F7F82FFF70AF2EF8018581823008F49ECFC8010E94C81C07
:2052C00097FD99CFF80182859385A485B5854F96A11DB11D82879387A487B587F0E2AF9E3D
:2052E000B0011124645C7D4F6115710509F483CFFB018081882309F1853E19F4B11032C0DC
:205300001EC04BE050E0C7010E94223C892B09F0B6CF6A2DC6012B960FB6F894DEBF0FBE80
:20532000CDBFDF91CF911F910F91FF90EF90DF90CF90BF90AF900C947728B1105CCFF60135
:20534000A28A8091040190910501A0910601B091070186879787A08BB18BFB018081882329
:2053600009F449CFBB24B3948ACF0E941D3CEF92FF920F931F93CF93DF93EC017B018A0170
:205380001B821A8288EE93E0A0E0B0E08C839D83AE83BF838FE191E0998388838DE190E053
:2053A0000E94F83A9A8F898F009779F02DE1F701DC0101900D922A95E1F74CE050E0B80119
:2053C000CE010C960E943A3C188EDF91CF911F910F91FF90EF9008951F93CF93DF9385EDDB
:2053E0008093BC008091AD019091AE01A091AF01B091B0010796A11DB11D23E0B695A795C9
:20540000979587952A95D1F72091BC0024FD03C01092F50152C04091AD015091AE016091C2
:20542000AF017091B001452B462B472B69F30097A105B10541F02AE22A95F1F700C001972C
:20544000A109B109E1CF8091AC01C1E0C093AB01882399F1D091B8001091BA008091BC0064
:205460008A7B8093BC0060E082E10E94E60760E083E10E94E6071092F501C093F70110926E
:20548000F60161E082E10E94E60761E083E10E94E6078091B9008E7F8093B9008091B90041
:2054A0008D7F8093B90088E48093B80085E48093BC001093BA00D093B800DF91CF911F91AD
:2054C00008952F923F924F925F926F927F928F929F92AF92BF92CF92DF92EF92FF920F934F
:2054E0001F93CF93DF93CDB7DEB7CF5CD1090FB6F894DEBF0FBECDBF6C019E012F5A3F4F9E
:20550000CA55DF4F39832883C65AD04065961FAE1EAE659783E591E063969FAF8EAF6397C0
:2055200067961FAE67971C821B829A8389831E82C9010E94E01A8601AE014F5F5F4F7A012C
:20554000CA55DF4F6880C65AD040C955DF4F7880C75AD0404A016FE270E0C8010E942F3CAF
:20556000009709F45FC0D8012C912F3269F40F5F1F4F9E2D8F2D7301692E782E962D872D99
:205580003701E92EF82EE7CF801B8D3008F08CE0A82EB12CA501B801CE0185579F4F0E94D7
:2055A0003A3CEBE8F0E0EC0FFD1FEA0DFB1D1082C7010E94CF1EF7018581882321F1E29690
:2055C0001FAE1EAEE29783E591E0E0969FAF8EAFE097E4961FAEE49710E000E00C0D1D1D83
:2055E000D8018C91811127C0BE0162597F4FC4010E94E90947E851E0B401CE0185579F4FED
:205600000E94B7294FC0AE0145575F4FB301C7010E94D328882399F20A0D1B1DC3010E94FC
:20562000CF1EACCF0C191D09B301CE0182599F4F0E94E909D3CF65961FAE1EAE659783E53D
:2056400091E063969FAF8EAF639767961FAE6797E4968FADE497811158C0C357DF4F1982D5
:205660001882CD58D04088EE93E0A0E0B0E0C157DF4F88839983AA83BB83CF58D0408FE1E3
:2056800091E0C557DF4F99838883CB58D040CC55DF4F19821882C45AD040C956DF4F18825C
:2056A000C759D040CC55DF4FE881F981C45AD040309709F4F3C38581882309F4EFC3FE0181
:2056C0003196C855DF4FF983E883C85AD040CE0185579F4F0E94E81D7C01F1E0EF1AF1080F
:2056E00029E0E216F10408F0C5C38730910531F5CE0185579F4F0E94E81D811101C081E0CD
:205700008093380580933905E2CFA801BE0162597F4FCE018F5A9F4F0E94D328882309F45B
:205720009CCFCE0182599F4F0E94CF1EBE016F5A7F4FC4010E94E909A8015ECF10E08F5E75
:205740009E4FDC010C91101798F4CE0185579F4F0E94F21DE12FF0E0EE0FFF1F21E530E0D4
:205760002C0F3D1FE20FF31F918380831F5FEBCF0091350210913602CE0185579F4F0E9464
:20578000E81D81709927F801EE0FFF1FE80FF91FEE0FFF1FE35DFE4F40815181C655DF4FAC
:2057A00059834883CA5AD04059E0E516F10408F08ECFF701E252F44D0C94CF3AE72BFE2B3F
:2057C000152C302C4B2CD82E672BBD2E8A2C67962EAD3FAD679765964EAD5FAD65976396C3
:2057E0006EAD7FAD6397C655DF4F08811981CA5AD04084E295E00E94502869CF67962EADC3
:205800003FAD679765964EAD5FAD659763966EAD7FAD6397C655DF4F08811981CA5AD040C6
:2058200084E295E00E94632852CF69960EAD1FAD699767962EAD3FAD679765964EAD5FADF5
:20584000659763966EAD7FAD6397C655DF4FE880F980CA5AD04084E295E00E940C0D37CF18
:2058600069960EAD1FAD699767962EAD3FAD679765964EAD5FAD659763966EAD7FAD6397A8
:20588000C655DF4FE880F980CA5AD04084E295E00E9435241CCF6D964EAC5FAC6D976B96DC
:2058A0002EAC3FAC6B9769966EAC7FAC699767968EAC9FAC67976596AEACBFAC65976396A8
:2058C000CEACDFAC6397C655DF4FE880F980CA5AD04083019401A501B60184E295E00E9478
:2058E0003524C655DF4FE880F980CA5AD04082019101A301B40184E295E00E943524C65592
:20590000DF4FE880F980CA5AD04085019601A201B101BCCF6D966EAC7FAC6D976B968EACC0
:205920009FAC6B976996CEACDFAC699767962EAC3FAC67976596AEACBFAC659763964EACA7
:205940005FAC6397CA14DB040CF0C3C26A147B040CF4D4C29A2D8B2D5601C92ED82E942DDD
:20596000852D2101292E382EA614B70411F5241435042CF4942D852D2101292E382E8414A0
:2059800095042CF0281439040CF4140142019101281939092F5F3F4FC655DF4F08811981E4
:2059A000CA5AD040A501B40184E295E00E9491258ECE982D892D4201492E582E962D872D97
:2059C0003501A92EB82EC10188199909960126193709B20168197909C254DF4F79836883D8
:2059E000CE5BD040D501A619B709CE54DF4FB983A883C25BD04042185308F501EC19FD097F
:205A0000C654DF4FF983E883CA5BD0407601F1E0EF1AF108AC14BD0409F47501C455DF4F9D
:205A200079826882CC5AD040CA54DF4F188219821A821B82C65BD040C255DF4F18821982E6
:205A40001A821B82CE5AD040C254DF4F48815981CE5BD040052E000C660B770BC054DF4F41
:205A6000488359836A837B83C05CD040A901330F660B770BCC53DF4F488359836A837B83AA
:205A8000C45CD040CE54DF4F28813981C25BD040032E000C440B550BC853DF4F288339835A
:205AA0004A835B83C85CD040AC01990F660B770BC453DF4F488359836A837B83CC5CD040B0
:205AC000C455DF4F68817981CC5AD040E616F7060CF497C0C255DF4F688179818A819B81C7
:205AE000CE5AD040CC53DF4F288139814A815B81C45CD0400E9448388401020F131FCA54DF
:205B0000DF4F688179818A819B81C65BD040C853DF4F288139814A815B81C85CD0400E94F3
:205B20004838B401620F731FC255DF4F88819981AA81BB81CE5AD040C453DF4F288139817E
:205B40004A815B81CC5CD040820F931FA41FB51FC255DF4F88839983AA83BB83CE5AD0407D
:205B6000CA54DF4F88819981AA81BB81C65BD040C054DF4F288139814A815B81C05CD040A6
:205B8000820F931FA41FB51FCA54DF4F88839983AA83BB83C65BD040601771072CF0962F4C
:205BA000872FB801092F182F061B170B98012F5F3F4FC655DF4F08811981CA5AD040C45546
:205BC000DF4F48815981CC5AD04084E295E00E949125C455DF4F48815981CC5AD0404F5FBD
:205BE0005F4FC455DF4F59834883CC5AD04068CF922D832D1201492E582E9A2D8B2D560147
:205C000089C1B201052C000C880B990BC255DF4F688379838A839B83CE5AD040C455DF4F3D
:205C200028813981CC5AD0402C193D09D2010E94D53A6B017C01C455DF4F28813981CC5A03
:205C4000D04026193709C254DF4FA881B981CE5BD0400E94D53A2B013C01C654DF4F88816A
:205C60009981CA5BD040092E000CAA0BBB0BC654DF4F88839983AA83BB83CA5BD040CE54E6
:205C8000DF4F28813981C25BD040032E000C440B550BCE54DF4F288339834A835B83C25BDB
:205CA000D040C455DF4F48815981CC5AD040A416B5060CF40CCDC701B601C654DF4F2881F6
:205CC00039814A815B81CA5BD0400E9448388101020F131FC301B201CE54DF4F288139811D
:205CE0004A815B81C25BD0400E944838B401620F731FC255DF4F88819981AA81BB81CE5AFF
:205D0000D040C80ED91EEA1EFB1EC054DF4F288139814A815B81C05CD040420E531E641ECA
:205D2000751E601771072CF0962F872FB801092F182F061B170B98012F5F3F4FC655DF4FD1
:205D400008811981CA5AD040C455DF4F48815981CC5AD04084E295E00E949125C455DF4F52
:205D600048815981CC5AD0404F5F5F4FC455DF4F59834883CC5AD04094CF69960EAD1FADE1
:205D8000699767962EAD3FAD679765964EAD5FAD659763966EAD7FAD6397C655DF4FE88058
:205DA000F980CA5AD04084E295E00E94D6238FCCCE0185579F4F0E94E81D6C01F12CE12C8E
:205DC00010E000E0EC14FD04ACF4CE0185579F4F0E94E81D0F3411054CF4E1E0F0E0EC0FED
:205DE000FD1FE00FF11F80830F5F1F4F5FEFE51AF50AE8CFE1E0F0E0EC0FFD1FE00FF11FFF
:205E0000108265968EAD9FAD659763962EAD3FAD6397309331052093300590933305809369
:205E20003205C655DF4F68817981CA5AD04070933705609336057093350560933405C855D8
:205E4000DF4FE881F981C85AD04001900020E9F73197AF01C855DF4F88819981C85AD04056
:205E6000481B590BBE016F5F7F4F84E295E00E94DC082DCCCC55DF4F88819981C45AD04006
:205E8000009751F00E94CF1ECC55DF4F88819981C45AD0400E94943B81E001C080E0C153F4
:205EA000DF4F0FB6F894DEBF0FBECDBFDF91CF911F910F91FF90EF90DF90CF90BF90AF90E3
:205EC0009F908F907F906F905F904F903F902F9008956C147D040CF047CD6A147B040CF45F
:205EE00087CE982D892D41011201492E582E9C2D8D2D65015301692E782E2CCD6C147D040C
:205F00000CF461CD982D892D4101292E382E962D872D3601C92ED82E56CD5F926F927F9208
:205F20008F929F92AF92BF92CF92DF92EF92FF920F931F93CF93DF93CDB7DEB768970FB694
:205F4000F894DEBF0FBECDBF8DE0E1E9F1E0DE01119601900D928A95E1F78090390290909F
:205F60003A0290E3592E580C5F82009137021091380280E3800F88878BE0EEE9F1E0DE010E
:205F80001E9601900D928A95E1F770E060E084E295E00E943328A0913502B0913602AA240F
:205FA000A394B12CB0920301A0920201AA0FBB1FAA0FBB1FA35DBE4F1296CD90DC90139704
:205FC000D0923705C0923605D0923505C092340581E0809338058093390525E0289DC001E2
:205FE000299D900D1124800F911F880F991F880F991FFC01E850F14F85909490FC01E6504B
:20600000F14F65907490ED90FC900CE110E0930144E251E0B40184E295E00E940C0D7601B4
:20602000930144E251E0B40184E295E00E94D6235B8ACE010E960E94612ACE0101960E94BD
:20604000612A81113CC082E080933805809339058AEB90E0909331058093300586E990E0BF
:20606000909333058093320580910201909103010197C1F0E0913502F0913602B092030152
:20608000A0920201EE0FFF1FEE0FFF1FE35DFE4F82819381909337058093360590933505E7
:2060A0008093340547E050E069E871E084E295E00E94DC0881E0809338058093390568963A
:2060C0000FB6F894DEBF0FBECDBFDF91CF911F910F91FF90EF90DF90CF90BF90AF909F90C0
:2060E0008F907F906F905F900895CF93DF93EB010E943F3826E0AC01249FC001259F900D76
:2061000011248C9F90018D9F300D9C9F300D112480912C0590912D05821B930B97FD01967D
:2061200095958795DF91CF9108951F920F920FB60F9211242F933F938F939F93AF93BF9343
:206140008091280290912902A0912A02B0912B023091270223E0230F2D3758F50196A11DC8
:20616000B11D209327028093280290932902A0932A02B0932B0280912C0290912D02A0915B
:206180002E02B0912F020196A11DB11D80932C0290932D02A0932E02B0932F02BF91AF9140
:2061A0009F918F913F912F910F900FBE0F901F90189526E8230F0296A11DB11DD2CF1F92E2
:2061C0000F920FB60F9211242F933F934F935F936F937F938F939F93AF93BF93EF93FF930B
:2061E0008CE394E00E945A09FF91EF91BF91AF919F918F917F916F915F914F913F912F9157
:206200000F900FBE0F901F9018951F920F920FB60F9211242F938F939F93EF93FF93E0918F
:206220004C04F0914D048081E0915204F091530482FD1BC09081809155048F5F8F73209126
:206240005604821741F0E0915504F0E0E45CFB4F958F80935504FF91EF919F918F912F9146
:206260000F900FBE0F901F9018958081F4CF1F920F920FB60F9211242F933F934F935F939E
:206280006F937F938F939F93AF93BF93EF93FF938091B900887F803609F44AC0F0F58832C1
:2062A00009F4A5C018F5803109F499C0B8F4882309F4F5C0883009F492C0FF91EF91BF91F8
:2062C000AF919F918F917F916F915F914F913F912F910F900FBE0F901F901895883109F4A1
:2062E00086C0803251F78093F40114C0803409F49BC040F48033B9F38833F9F68093F40131
:2063000085ECAEC0803509F483C0883509F494C0883499F60E94EC29D0CF883909F48AC0F2
:2063200038F5883729F050F4883611F0803729F683E08093F5011092F30155C0883809F4AB
:2063400079C0803919F0803809F0B7CF8091F301803208F06FC0E091F30181E08E0F8093B7
:20636000F3018091BB00F0E0ED52FE4F80833BC0803B39F0D0F4803A09F477C0883A09F0B2
:206380009CCF84E08093F5011092D2011092D101F0E0E0E009958091D10181110FC081E069
:2063A0008093D1011092B10109C0803C09F4A8CF883C09F4A5CF883B09F07FCFE091D20128
:2063C00081E08E0F8093D201F0E0EF54FE4F80818093BB009091D2018091D10129C08091D9
:2063E0001A028093BB0085EC8093BC0066CF9091190280911802981758F5E091190281E0EE
:206400008E0F80931902F0E0E850FE4F8081E9CFE091190281E08E0F809319028091BB001F
:20642000F0E0E850FE4F808390911902809118029817C8F285E8D8CFE091190281E08E0F96
:20644000809319028091BB00F0E0E850FE4F80838091F70181115ECF81E08093F60184EA49
:206460008093BC001092F50128CF85EC8093BC001092F5018091F301803230F4E091F301A6
:20648000F0E0ED52FE4F10826091F30170E083ED91E0F0E0E0E009951092F3010ECF1092B5
:2064A000F40138CFECE3F4E01382128288EE93E0A0E0B0E084839583A683B78381E491E0C3
:2064C0009183808385EC90E09587848784EC90E09787868780EC90E0918B808B81EC90E0B2
:2064E000938B828B82EC90E0958B848B86EC90E0978B868B118E128E138E148EE9EDF4E023
:2065000080E580831182EBEDF4E0158216821186138682E090E0A0E0B0E084879587A6873F
:20652000B78713A215A614A683E591E093A782A717A6A9E5B5E080E112968C9312978FE097
:2065400014968C93149786E013968C93139787E015968C9315978CE291E017969C938E9336
:206560001697E9E6FFE0E491F0E0EE0FFF1FE85AF04F8591949119969C938E931897E2E72D
:20658000FFE0E491F0E0EE0FFF1FE85AF04F859194911B969C938E931A97E1E7FFE0E49132
:2065A000F0E0EE0FFF1FE85AF04F859194911D969C938E931C97E8E6FFE0E491F0E0EE0F8F
:2065C000FF1FE85AF04F859194911F969C938E931E97EBE4FFE0E4915096EC935097E4E5EF
:2065E000FFE0E4915296EC935297E3E5FFE0E4915196EC935197EAE4FFE0E4915396EC9303
:2066000053978AE090E08D939C93E4E2F5E01382128220EF30E03583248380E491E0978336
:2066200086833187208793878287168A158614861786168681E0858B848B2FEF3FEF338B37
:20664000228B318B208B878B108E128E118E8FE591E0918380830895CF93DF9300D000D02A
:206660001F92CDB7DEB7789484B5826084BD84B5816084BD85B5826085BD85B5816085BDD2
:2066800080916E00816080936E001092810080918100826080938100809181008160809368
:2066A0008100809180008160809380008091B10084608093B1008091B00081608093B00085
:2066C00080917A00846080937A0080917A00826080937A0080917A00816080937A008091BA
:2066E0007A00806880937A001092C10060E090E080E00E94610B8C01883024E5920749F109
:206700008032944531F10938194809F482C160E087E690E00E94610B07E413E88734974443
:20672000C1F08FEE90E00E94DE0B8B016732734981F081EA90E00E94BF0B03E619E1613023
:2067400081E6780731F06F3F760709F096C006E215E161E08AE00E94320861E08AE00E9406
:20676000E607C8010E94211180910A05882321F085E095E00E94CF1E1092E6041092E40434
:206780001092E1041092E0048AE08093DF040E94D0087B0161E08091DF040E94320861E044
:2067A0008091DF040E94E607DFB6F89480912002811127C0ECE6FFE08491EEE4FFE09491ED
:2067C000E82FF0E0EE0FFF1FEC56F84FA591B491EC91E92321F461E08AE00E94E60761E09A
:2067E0008AE00E9432088CB580618CBD8CB580648CBD61E08DE00E94320861E08BE00E94A2
:206800003208809120028F5F80932002DFBE82E58093D9041092DA048091D9049091DA0487
:206820000E940A165AE0D52E8FEF0E94E515DA94D110FACF8BED94E00E940D1620E030E066
:20684000A90160E08BED94E00E942316D82E8093E50421E0821709F4E8C00E94D0086E1945
:206860007F09613D774050F381E08093E0048BED94E00E94DA1590E053C161152FEF720792
:2068800019F400E215E165CF01EA15E06115704F09F45FCF8FEB90E00E94DE0B8B01073562
:2068A00083E8180709F455CF013894E9190709F450CF013125E1120709F44BCF003245E17B
:2068C0001407F9F2063285E1180709F440CF013895E1190709F43DCF0115144109F49CC04D
:2068E00084ED90E00E94BF0B8B016031734509F430CF87ED90E00E94BF0B8B01013380E802
:20690000180709F426CF8EEF90E00E94BF0B072F182F292F3327033590E2190709F419CF2F
:2069200084E090E00E94BF0B8B01833E29F4672B41F500E013EE0DCF811123C06115704885
