:200000000C94BC070C94E4070C94E4070C94E4070C94E4070C94E4070C94E4070C94E407B0
:200020000C94E4070C94E4070C94E4070C94E4070C94E4070C94E4070C94E4070C94E40768
:200040000C9495300C94E4070C9405310C94DF300C94E4070C94E4070C94E4070C94E407FF
:200060000C9437310C94E40700000000003E5B4F5B3E3E6B4F6B3E1C3E7C3E1C183C7E3C8D
:20008000181C577D571C1C5E7F5E1C00183C1800FFE7C3E7FF0018241800FFE7DBE7FF304C
:2000A000483A060E2629792926407F050507407F05253F5A3CE73C5A7F3E1C1C08081C1C4B
:2000C0003E7F14227F22145F5F005F5F06097F017F006689956A606060606094A2FFA294B5
:2000E00008047E040810207E201008082A1C08081C2A08081E101010100C1E0C1E0C3038AA
:200100003E3830060E3E0E06000000000000005F00000007000700147F147F14242A7F2A35
:2001200012231308646236495620500008070300001C2241000041221C002A1C7F1C2A0841
:20014000083E080800807030000808080808000060600020100804023E5149453E00427FE7
:20016000400072494949462141494D331814127F1027454545393C4A4949314121110907B9
:200180003649494936464949291E000014000000403400000008142241141414141400414D
:2001A00022140802015909063E415D594E7C1211127C7F494949363E414141227F414141F1
:2001C0003E7F494949417F090909013E414151737F0808087F00417F41002040413F017FB0
:2001E000081422417F404040407F021C027F7F0408107F3E4141413E7F090909063E41511A
:20020000215E7F09192946264949493203017F01033F4040403F1F2040201F3F4038403F63
:20022000631408146303047804036159494D43007F4141410204081020004141417F0402E7
:200240000102044040404040000307080020545478407F284444383844444428384444284A
:200260007F385454541800087E090218A4A49C787F0804047800447D40002040403D007F4A
:200280001028440000417F40007C047804787C080404783844444438FC182424181824245A
:2002A00018FC7C08040408485454542404043F44243C4040207C1C2040201C3C4030403C47
:2002C00044281028444C9090907C4464544C440008364100000077000000413608000201BA
:2002E0000204023C2623263C1EA1A161123A4040207A385454555921555579412254547893
:2003000042215554784020545579400C1E52721239555555593954545459395554545800EA
:2003200000457C410002457D420001457C407D1211127DF0282528F07C54554500205454FD
:200340007C547C0A097F4932494949323A4444443A324A4848303A4141217A3A4240207810
:20036000009DA0A07D3D4242423D3D4040403D3C24FF2424487E4943662B2FFC2F2BFF0992
:2003800029F620C0887E090320545479410000447D413048484A32384040227A007A0A0AAA
:2003A000727D0D19317D2629292F28262929292630484D4020380808080808080808382FE0
:2003C00010C8ACBA2F102834FA00007B000008142A142222142A14085500550055AA55AA2F
:2003E00055AAFF55FF55FF000000FF00101010FF00141414FF001010FF00FF1010F010F0C0
:00000001FF
